{
  "abi": [
    {
      "type": "function",
      "name": "approveAndGoLive",
      "inputs": [],
      "outputs": [],
      "stateMutability": "nonpayable"
    },
    {
      "type": "function",
      "name": "donate",
      "inputs": [
        {
          "name": "amount",
          "type": "uint256",
          "internalType": "uint256"
        }
      ],
      "outputs": [],
      "stateMutability": "nonpayable"
    },
    {
      "type": "function",
      "name": "escrow",
      "inputs": [],
      "outputs": [
        {
          "name": "",
          "type": "address",
          "internalType": "contract MilestoneEscrow"
        }
      ],
      "stateMutability": "view"
    },
    {
      "type": "function",
      "name": "initialize",
      "inputs": [
        {
          "name": "_creator",
          "type": "address",
          "internalType": "address"
        },
        {
          "name": "_governor",
          "type": "address",
          "internalType": "address"
        },
        {
          "name": "_stablecoin",
          "type": "address",
          "internalType": "address"
        },
        {
          "name": "_metadataCid",
          "type": "string",
          "internalType": "string"
        },
        {
          "name": "_timelock",
          "type": "address",
          "internalType": "address"
        },
        {
          "name": "_trustScore",
          "type": "uint256",
          "internalType": "uint256"
        }
      ],
      "outputs": [],
      "stateMutability": "nonpayable"
    },
    {
      "type": "function",
      "name": "isLive",
      "inputs": [],
      "outputs": [
        {
          "name": "",
          "type": "bool",
          "internalType": "bool"
        }
      ],
      "stateMutability": "view"
    },
    {
      "type": "function",
      "name": "metadataCid",
      "inputs": [],
      "outputs": [
        {
          "name": "",
          "type": "string",
          "internalType": "string"
        }
      ],
      "stateMutability": "view"
    },
    {
      "type": "function",
      "name": "milestones",
      "inputs": [
        {
          "name": "",
          "type": "uint256",
          "internalType": "uint256"
        }
      ],
      "outputs": [
        {
          "name": "proofCid",
          "type": "string",
          "internalType": "string"
        },
        {
          "name": "amount",
          "type": "uint256",
          "internalType": "uint256"
        },
        {
          "name": "released",
          "type": "bool",
          "internalType": "bool"
        }
      ],
      "stateMutability": "view"
    },
    {
      "type": "function",
      "name": "proposeMilestone",
      "inputs": [
        {
          "name": "proofCid",
          "type": "string",
          "internalType": "string"
        },
        {
          "name": "amount",
          "type": "uint256",
          "internalType": "uint256"
        }
      ],
      "outputs": [],
      "stateMutability": "nonpayable"
    },
    {
      "type": "function",
      "name": "releaseMilestone",
      "inputs": [
        {
          "name": "id",
          "type": "uint256",
          "internalType": "uint256"
        }
      ],
      "outputs": [],
      "stateMutability": "nonpayable"
    },
    {
      "type": "function",
      "name": "stablecoin",
      "inputs": [],
      "outputs": [
        {
          "name": "",
          "type": "address",
          "internalType": "contract IERC20"
        }
      ],
      "stateMutability": "view"
    },
    {
      "type": "function",
      "name": "timelock",
      "inputs": [],
      "outputs": [
        {
          "name": "",
          "type": "address",
          "internalType": "address"
        }
      ],
      "stateMutability": "view"
    },
    {
      "type": "function",
      "name": "trustScore",
      "inputs": [],
      "outputs": [
        {
          "name": "",
          "type": "uint256",
          "internalType": "uint256"
        }
      ],
      "stateMutability": "view"
    },
    {
      "type": "event",
      "name": "CampaignLive",
      "inputs": [],
      "anonymous": false
    },
    {
      "type": "event",
      "name": "Initialized",
      "inputs": [
        {
          "name": "version",
          "type": "uint64",
          "indexed": false,
          "internalType": "uint64"
        }
      ],
      "anonymous": false
    },
    {
      "type": "event",
      "name": "MilestoneProposed",
      "inputs": [
        {
          "name": "id",
          "type": "uint256",
          "indexed": true,
          "internalType": "uint256"
        },
        {
          "name": "proofCid",
          "type": "string",
          "indexed": false,
          "internalType": "string"
        },
        {
          "name": "amount",
          "type": "uint256",
          "indexed": false,
          "internalType": "uint256"
        }
      ],
      "anonymous": false
    },
    {
      "type": "error",
      "name": "InvalidInitialization",
      "inputs": []
    },
    {
      "type": "error",
      "name": "NotInitializing",
      "inputs": []
    },
    {
      "type": "error",
      "name": "SafeERC20FailedOperation",
      "inputs": [
        {
          "name": "token",
          "type": "address",
          "internalType": "address"
        }
      ]
    }
  ],
  "bytecode": {
    "object": "0x60808060405234601557611d60908161001a8239f35b5f80fdfe6080806040526004361015610012575f80fd5b5f905f3560e01c9081633078d99814610c1357508063317debf514610b8e5780636a03f48314610714578063a049f4e8146106b5578063a1e88702146104c9578063b8f7a665146104a3578063d33219b41461047a578063e2fdcc1714610451578063e89e4ed6146102f3578063e9cbd822146102ca578063f14faf6f1461018b5763ff368581146100a2575f80fd5b346101885780600319360112610188576040519080600354906100c482610c5b565b80855291600181169081156101615750600114610104575b610100846100ec81860382610c93565b604051918291602083526020830190610cc9565b0390f35b600381527fc2575a0e9e593c00f959f8c92f12db2869c3395a3b0502d05e2516446f71f85b939250905b808210610147575090915081016020016100ec826100dc565b91926001816020925483858801015201910190929161012e565b60ff191660208087019190915292151560051b850190920192506100ec91508390506100dc565b80fd5b5034610188576020366003190112610188576004359060ff60055460a01c161561028e576002546040516323b872dd60e01b8352336004523060245260448490526001600160a01b039091169260208360648180885af1600184511481161561026f575b82604052836060521561025b5760065492935083926001600160a01b0316803b1561025657602483858193819563b6b55f2560e01b845260048401525af1801561024b5761023a5750f35b8161024491610c93565b6101885780f35b6040513d84823e3d90fd5b505050fd5b635274afe760e01b83526004849052602483fd5b600181151661028557843b15153d1516166101ef565b823d85823e3d90fd5b60405162461bcd60e51b815260206004820152601460248201527343616d706169676e206973206e6f74206c69766560601b6044820152606490fd5b50346101885780600319360112610188576002546040516001600160a01b039091168152602090f35b50346101885760203660031901126101885760043560075481101561044d576003906007835202807fa66cc928b5edb82af9bd49922954155ab7b0942694bea4ce44661d9a8736c6880190604051918381549161034f83610c5b565b808652926001811690811561042557506001146103e9575b505050610379826103d8940383610c93565b60ff7fa66cc928b5edb82af9bd49922954155ab7b0942694bea4ce44661d9a8736c68a7fa66cc928b5edb82af9bd49922954155ab7b0942694bea4ce44661d9a8736c68983015492015416604051938493606085526060850190610cc9565b916020840152151560408301520390f35b908092955052602081205b84821061040f575082016020019250610379826103d8610367565b60018160209254838588010152019101906103f4565b6103d897508693506020925061037994915060ff191682840152151560051b82010194610367565b5080fd5b50346101885780600319360112610188576006546040516001600160a01b039091168152602090f35b50346101885780600319360112610188576005546040516001600160a01b039091168152602090f35b5034610188578060031936011261018857602060ff60055460a01c166040519015158152f35b50346101885760403660031901126101885760043567ffffffffffffffff811161044d576104fb903690600401610c2d565b825460243592906001600160a01b031633036106815760ff60055460a01c16156106515760065484906001600160a01b0316803b1561044d578160405180926350f4438160e11b82528183816105568b8b8b60048501610d29565b03925af1801561024b57610638575b5050600654604051638f4cf24760e01b81529390602090859060049082906001600160a01b03165afa93841561062d5785946105f5575b505f1984019384116105e157906105db7fa8dc57f62ffa9c64862029f28b93c4e4bb142bab078b7a67ffe8947a80bc2a69939260405193849384610d29565b0390a280f35b634e487b7160e01b85526011600452602485fd5b9093506020813d602011610625575b8161061160209383610c93565b810103126106215751925f61059c565b8480fd5b3d9150610604565b6040513d87823e3d90fd5b8161064291610c93565b61064d57835f610565565b8380fd5b60405162461bcd60e51b81526020600482015260086024820152674e6f74204c69766560c01b6044820152606490fd5b60405162461bcd60e51b815260206004820152600c60248201526b27b7363c9021b932b0ba37b960a11b6044820152606490fd5b50346101885780600319360112610188576005546106dd336001600160a01b03831614610ced565b60ff60a01b1916600160a01b176005557fca74f42aeabb0c8ce335bbec9e7b53e4189c7f6f7dbf61441946a72a28b15ba58180a180f35b50346101885760c0366003190112610188576004356001600160a01b0381169081900361044d576024356001600160a01b03811691908290036109e1576044356001600160a01b0381169081900361064d5760643567ffffffffffffffff811161062157610786903690600401610c2d565b906084356001600160a01b03811690819003610b8a575f516020611d0b5f395f51905f52549560ff8760401c16159667ffffffffffffffff811680159081610b82575b6001149081610b78575b159081610b6f575b50610b605767ffffffffffffffff1981166001175f516020611d0b5f395f51905f525587610b34575b50856001600160601b0360a01b8954161788556001600160601b0360a01b6001541617600155836001600160601b0360a01b60025416176002556001600160601b0360a01b600554161760055567ffffffffffffffff8211610b2057819061086d600354610c5b565b601f8111610aa8575b508690601f8311600114610a24578792610a19575b50508160011b915f199060031b1c1916176003555b60a43560045560018060a01b036001541660405192610fb3928385019385851067ffffffffffffffff861117610a05579285949192889693606095610d58863983526020830152604082015203019082f080156109f857600680546001600160a01b0319166001600160a01b0392831690811790915560025460405163095ea7b360e01b815260048101929092525f1960248301529092602092849260449284929091165af180156109ed576109b1575b506109595780f35b68ff0000000000000000195f516020611d0b5f395f51905f5254165f516020611d0b5f395f51905f52557fc7f505b2f371ae2175ee4913f4499e1f2633a7b5936321eed1cdaeb6115181d2602060405160018152a180f35b6020813d6020116109e5575b816109ca60209383610c93565b810103126109e157518015150361044d575f610951565b8280fd5b3d91506109bd565b6040513d85823e3d90fd5b50604051903d90823e3d90fd5b634e487b7160e01b88526041600452602488fd5b013590505f8061088b565b600388527fc2575a0e9e593c00f959f8c92f12db2869c3395a3b0502d05e2516446f71f85b925090601f198416885b818110610a905750908460019594939210610a77575b505050811b016003556108a0565b01355f19600384901b60f8161c191690555f8080610a69565b91936020600181928787013581550195019201610a53565b828111156108765790915060038752601f830160051c9060208410610b18575b9080601f8594930160051c0390885b828110610ae5575050610876565b8082017fc2575a0e9e593c00f959f8c92f12db2869c3395a3b0502d05e2516446f71f85b018a9055859450600101610ad7565b879150610ac8565b634e487b7160e01b86526041600452602486fd5b68ffffffffffffffffff191668010000000000000001175f516020611d0b5f395f51905f52555f610804565b63f92ee8a960e01b8952600489fd5b9050155f6107db565b303b1591506107d3565b8991506107c9565b8680fd5b5034610c0f576020366003190112610c0f57610bb560018060a01b03600554163314610ced565b6006546001600160a01b0316803b15610c0f575f809160246040518094819363317debf560e01b835260043560048401525af18015610c0457610bf6575080f35b610c0291505f90610c93565b005b6040513d5f823e3d90fd5b5f80fd5b34610c0f575f366003190112610c0f576020906004548152f35b9181601f84011215610c0f5782359167ffffffffffffffff8311610c0f5760208381860195010111610c0f57565b90600182811c92168015610c89575b6020831014610c7557565b634e487b7160e01b5f52602260045260245ffd5b91607f1691610c6a565b90601f8019910116810190811067ffffffffffffffff821117610cb557604052565b634e487b7160e01b5f52604160045260245ffd5b805180835260209291819084018484015e5f828201840152601f01601f1916010190565b15610cf457565b60405162461bcd60e51b815260206004820152600d60248201526c27b7363c9023b7bb32b93737b960991b6044820152606490fd5b9392918060609160209360408852816040890152838801375f828288010152601f801991011685010193015256fe60e03461014257601f610fb338819003918201601f19168301916001600160401b0383118484101761014657808492606094604052833981010312610142576100478161015a565b9061006060406100596020840161015a565b920161015a565b9060017f9b779b17422d0df92223018b32b4d1fa46e071723d6817e2486d003becc55f0055331561012f575f8054336001600160a01b0319821681178355604051959290916001600160a01b0316907f8be0079c531659141344cd1fd0a4f28419497f9722a3daafe3b4186f6b6457e09080a36001600160a01b031660805260a05260c052610e44908161016f823960805181818161024301528181610688015281816107b501526108f6015260a0518181816101eb015261098c015260c05181818161072301526107650152f35b631e4fbdf760e01b5f525f60045260245ffd5b5f80fd5b634e487b7160e01b5f52604160045260245ffd5b51906001600160a01b03821682036101425756fe60806040526004361015610011575f80fd5b5f3560e01c80632442e1cb14610aad578063317debf51461089b5780635312ea8e146107525780636dc0ae221461070e578063715018a6146106b757806382bfefc8146106735780638da5cb5b1461064c5780638f4cf2471461062f578063a1e887021461032f578063b6b55f251461021a578063dd444718146101d6578063e33b7de3146101b9578063e89e4ed614610168578063f2fde38b146100df5763ff50abdc146100be575f80fd5b346100db575f3660031901126100db576020600154604051908152f35b5f80fd5b346100db5760203660031901126100db576004356001600160a01b038116908190036100db5761010d610d38565b8015610155575f80546001600160a01b03198116831782556001600160a01b0316907f8be0079c531659141344cd1fd0a4f28419497f9722a3daafe3b4186f6b6457e09080a3005b631e4fbdf760e01b5f525f60045260245ffd5b346100db5760203660031901126100db576004356003548110156100db5761018f90610b46565b5061019981610c07565b6101b560ff600260018501549401541660405193849384610b0a565b0390f35b346100db575f3660031901126100db576020600254604051908152f35b346100db575f3660031901126100db576040517f00000000000000000000000000000000000000000000000000000000000000006001600160a01b03168152602090f35b346100db5760203660031901126100db57600435610236610d5e565b610241811515610cf7565b7f00000000000000000000000000000000000000000000000000000000000000006040516323b872dd60e01b5f5233600452306024528260445260205f60648180865af19060015f511482161561030e575b6040525f606052156102ee57506102ac81600154610cea565b6001556040519081527f2da466a7b24304f47e87fa2e1e5a81b9831ce54fec19055ce277ca2f39ba42c460203392a260015f516020610def5f395f51905f5255005b635274afe760e01b5f9081526001600160a01b0391909116600452602490fd5b90600181151661032657823b15153d15161690610293565b503d5f823e3d90fd5b346100db5760403660031901126100db5760043567ffffffffffffffff81116100db57366023820112156100db57806004013567ffffffffffffffff81116100db57602482019160248236920101116100db576024359061038e610d38565b610399821515610cf7565b6001546103a883600254610cea565b116105ea57604051916103ba83610bc9565b601f19601f830116926040516103d36020860182610be5565b838152838660208301375f602085830101528152602081019082825260408101915f8352600354680100000000000000008110156105c35780600161041b9201600355610b46565b9290926105d7575180519067ffffffffffffffff82116105c35761043f8454610b91565b601f8111610572575b50602090601f831160011461050b576002949392915f9183610500575b50508160011b915f199060031b1c19161782555b516001820155019051151560ff80198354169116179055600354935f1985019485116104ec577fa8dc57f62ffa9c64862029f28b93c4e4bb142bab078b7a67ffe8947a80bc2a69936060925f848660405197889660408852816040890152838801378501015260208301528101030190a2005b634e487b7160e01b5f52601160045260245ffd5b015190508a80610465565b90601f19831691855f52815f20925f5b81811061055a575091600193918560029897969410610542575b505050811b018255610479565b01515f1960f88460031b161c191690558a8080610535565b9293602060018192878601518155019501930161051b565b8281111561044857845f5260205f20601f840160051c90602085106105bb575b81601f9101920160051c03905f5b8281106105ae575050610448565b5f828201556001016105a0565b5f9150610592565b634e487b7160e01b5f52604160045260245ffd5b634e487b7160e01b5f525f60045260245ffd5b60405162461bcd60e51b815260206004820152601a60248201527f4e6f7420656e6f7567682066756e6473206465706f73697465640000000000006044820152606490fd5b346100db575f3660031901126100db576020600354604051908152f35b346100db575f3660031901126100db575f546040516001600160a01b039091168152602090f35b346100db575f3660031901126100db576040517f00000000000000000000000000000000000000000000000000000000000000006001600160a01b03168152602090f35b346100db575f3660031901126100db576106cf610d38565b5f80546001600160a01b0319811682556001600160a01b03167f8be0079c531659141344cd1fd0a4f28419497f9722a3daafe3b4186f6b6457e08280a3005b346100db575f3660031901126100db576040517f00000000000000000000000000000000000000000000000000000000000000006001600160a01b03168152602090f35b346100db5760203660031901126100db577f00000000000000000000000000000000000000000000000000000000000000006004356001600160a01b038216330361085d5761079f610d5e565b6040516370a0823160e01b8152306004820152917f00000000000000000000000000000000000000000000000000000000000000006020846024816001600160a01b0385165afa938415610852575f9461081c575b5061080483610809951015610ca7565b610d96565b60015f516020610def5f395f51905f5255005b93506020843d60201161084a575b8161083760209383610be5565b810103126100db579251926108046107f4565b3d915061082a565b6040513d5f823e3d90fd5b60405162461bcd60e51b815260206004820152601660248201527513db9b1e4819dbdd995c9b9bdc8818d85b8818d85b1b60521b6044820152606490fd5b346100db5760203660031901126100db576004356108b7610d38565b6108bf610d5e565b600354811015610a71576108d281610b46565b5060028101805460ff8116610a39576040516370a0823160e01b81523060048201527f0000000000000000000000000000000000000000000000000000000000000000926020826024816001600160a01b0388165afa918215610852575f926109df575b506040939291610984916001807fefa981f9388f17167597c5fee4fc3d24b2b772263e1accbf61cfb2d219fc40f5980194610975865480951015610ca7565b60ff1916179055600254610cea565b6002556109b57f00000000000000000000000000000000000000000000000000000000000000009283835491610d96565b5482519081526001600160a01b039091166020820152a260015f516020610def5f395f51905f5255005b90939291506020813d602011610a31575b816109fd60209383610be5565b810103126100db575191929091907fefa981f9388f17167597c5fee4fc3d24b2b772263e1accbf61cfb2d219fc40f5610936565b3d91506109f0565b60405162461bcd60e51b815260206004820152601060248201526f105b1c9958591e481c995b19585cd95960821b6044820152606490fd5b60405162461bcd60e51b8152602060048201526014602482015273125b9d985b1a59081b5a5b195cdd1bdb9948125160621b6044820152606490fd5b346100db5760203660031901126100db57610ac9600435610b46565b50604051610ad681610bc9565b6101b56040610ae484610c07565b9283815260ff600260018701549687602085015201541615159182910152604051938493845b91939260806020604093606086528051918291826060890152018387015e5f828287010152601f80199101168401019460208401521515910152565b600354811015610b7d5760035f81815291027fc2575a0e9e593c00f959f8c92f12db2869c3395a3b0502d05e2516446f71f85b0191565b634e487b7160e01b5f52603260045260245ffd5b90600182811c92168015610bbf575b6020831014610bab57565b634e487b7160e01b5f52602260045260245ffd5b91607f1691610ba0565b6060810190811067ffffffffffffffff8211176105c357604052565b90601f8019910116810190811067ffffffffffffffff8211176105c357604052565b9060405191825f825492610c1a84610b91565b8084529360018116908115610c855750600114610c41575b50610c3f92500383610be5565b565b90505f9291925260205f20905f915b818310610c69575050906020610c3f928201015f610c32565b6020919350806001915483858901015201910190918492610c50565b905060209250610c3f94915060ff191682840152151560051b8201015f610c32565b15610cae57565b60405162461bcd60e51b8152602060048201526014602482015273496e73756666696369656e742062616c616e636560601b6044820152606490fd5b919082018092116104ec57565b15610cfe57565b60405162461bcd60e51b81526020600482015260126024820152710416d6f756e74206d757374206265203e20360741b6044820152606490fd5b5f546001600160a01b03163303610d4b57565b63118cdaa760e01b5f523360045260245ffd5b60025f516020610def5f395f51905f525414610d875760025f516020610def5f395f51905f5255565b633ee5aeb560e01b5f5260045ffd5b916040519163a9059cbb60e01b5f5260018060a01b031660045260245260205f60448180865af19060015f5114821615610dd6575b604052156102ee5750565b90600181151661032657823b15153d15161690610dcb56fe9b779b17422d0df92223018b32b4d1fa46e071723d6817e2486d003becc55f00a264697066735822122049ae11c5f026af602edb8eb371bd03cb109337a127f8763aa530582e757e469d64736f6c63430008220033f0c57e16840df040f15088dc2f81fe391c3923bec73e23a9662efc9c229c6a00a2646970667358221220e56dca1b1587ad679dcdc4b4ec4f0835e6a42d702688a184ed513570a90f406e64736f6c63430008220033",
    "linkReferences": {}
  },
  "methodIdentifiers": {
    "approveAndGoLive()": "a049f4e8",
    "donate(uint256)": "f14faf6f",
    "escrow()": "e2fdcc17",
    "initialize(address,address,address,string,address,uint256)": "6a03f483",
    "isLive()": "b8f7a665",
    "metadataCid()": "ff368581",
    "milestones(uint256)": "e89e4ed6",
    "proposeMilestone(string,uint256)": "a1e88702",
    "releaseMilestone(uint256)": "317debf5",
    "stablecoin()": "e9cbd822",
    "timelock()": "d33219b4",
    "trustScore()": "3078d998"
  },
  "id": 83
}