{
  "abi": [
    {
      "type": "constructor",
      "inputs": [
        {
          "name": "_implementation",
          "type": "address",
          "internalType": "address"
        },
        {
          "name": "_governor",
          "type": "address",
          "internalType": "address"
        },
        {
          "name": "_timelock",
          "type": "address",
          "internalType": "address"
        }
      ],
      "stateMutability": "nonpayable"
    },
    {
      "type": "function",
      "name": "IMPLEMENTATION",
      "inputs": [],
      "outputs": [
        {
          "name": "",
          "type": "address",
          "internalType": "address"
        }
      ],
      "stateMutability": "view"
    },
    {
      "type": "function",
      "name": "createCampaign",
      "inputs": [
        {
          "name": "stablecoin",
          "type": "address",
          "internalType": "address"
        },
        {
          "name": "metadataCid",
          "type": "string",
          "internalType": "string"
        },
        {
          "name": "trustScore",
          "type": "uint256",
          "internalType": "uint256"
        }
      ],
      "outputs": [
        {
          "name": "campaignAddr",
          "type": "address",
          "internalType": "address"
        },
        {
          "name": "escAddr",
          "type": "address",
          "internalType": "address"
        }
      ],
      "stateMutability": "nonpayable"
    },
    {
      "type": "function",
      "name": "governor",
      "inputs": [],
      "outputs": [
        {
          "name": "",
          "type": "address",
          "internalType": "address"
        }
      ],
      "stateMutability": "view"
    },
    {
      "type": "function",
      "name": "timelock",
      "inputs": [],
      "outputs": [
        {
          "name": "",
          "type": "address",
          "internalType": "address"
        }
      ],
      "stateMutability": "view"
    },
    {
      "type": "event",
      "name": "CampaignCreated",
      "inputs": [
        {
          "name": "campaign",
          "type": "address",
          "indexed": false,
          "internalType": "address"
        },
        {
          "name": "escrow",
          "type": "address",
          "indexed": false,
          "internalType": "address"
        },
        {
          "name": "creator",
          "type": "address",
          "indexed": false,
          "internalType": "address"
        }
      ],
      "anonymous": false
    },
    {
      "type": "error",
      "name": "FailedDeployment",
      "inputs": []
    },
    {
      "type": "error",
      "name": "InsufficientBalance",
      "inputs": [
        {
          "name": "balance",
          "type": "uint256",
          "internalType": "uint256"
        },
        {
          "name": "needed",
          "type": "uint256",
          "internalType": "uint256"
        }
      ]
    }
  ],
  "bytecode": {
    "object": "0x60a0346100af57601f61047538819003918201601f19168301916001600160401b038311848410176100b3578084926060946040528339810103126100af57610047816100c7565b906100606040610059602084016100c7565b92016100c7565b6080929092525f80546001600160a01b039283166001600160a01b0319918216179091556001805492909316911617905560405161039990816100dc823960805181818160eb01526102dc0152f35b5f80fd5b634e487b7160e01b5f52604160045260245ffd5b51906001600160a01b03821682036100af5756fe6080806040526004361015610012575f80fd5b5f905f3560e01c9081630c340a241461030b575080633a4741bd146102c75780635c401fd6146100755763d33219b41461004a575f80fd5b346100725780600319360112610072576001546040516001600160a01b039091168152602090f35b80fd5b50346102b45760603660031901126102b4576004356001600160a01b038116908190036102b45760243567ffffffffffffffff81116102b457366023820112156102b457806004013567ffffffffffffffff81116102b45736602482840101116102b4576e5af43d82803e903d91602b57fd5bf37f0000000000000000000000000000000000000000000000000000000000000000763d602d80600a3d3981f3363d3d373d3d3d363d7300000062ffffff8260881c16175f5260781b1760205260018060a01b03603760095ff0169283156102b8575f546001546001600160a01b039081169116853b156102b4578360e4925f9560246040519889978896636a03f48360e01b885233600489015283880152604487015260c060648701528260c487015201858501378282018401869052608483015260443560a4830152601f01601f1916810103018183865af180156102a957610294575b5060405163e2fdcc1760e01b8152602081600481855afa90811561028957839161023f575b6040838360018060a01b03167f1260f646519b6441128edda4528afcfbcf3e46959be8f7c3d85d50f62eda7c68606084518481528360208201523386820152a182519182526020820152f35b90506020813d602011610281575b8161025a6020938361032d565b8101031261027d57516001600160a01b038116810361027d57604092505f6101f3565b8280fd5b3d915061024d565b6040513d85823e3d90fd5b6102a19192505f9061032d565b5f905f6101ce565b6040513d5f823e3d90fd5b5f80fd5b63b06ebf3d60e01b5f5260045ffd5b346102b4575f3660031901126102b4576040517f00000000000000000000000000000000000000000000000000000000000000006001600160a01b03168152602090f35b346102b4575f3660031901126102b4575f546001600160a01b03168152602090f35b90601f8019910116810190811067ffffffffffffffff82111761034f57604052565b634e487b7160e01b5f52604160045260245ffdfea26469706673582212200faa00fd4a704431e897ccd86903a2ba0c9c53975415901ebb00fded712b9c3964736f6c63430008220033",
    "linkReferences": {}
  },
  "methodIdentifiers": {
    "IMPLEMENTATION()": "3a4741bd",
    "createCampaign(address,string,uint256)": "5c401fd6",
    "governor()": "0c340a24",
    "timelock()": "d33219b4"
  },
  "id": 84
}