{
  "abi": [
    {
      "type": "constructor",
      "inputs": [
        {
          "name": "_token",
          "type": "address",
          "internalType": "address"
        },
        {
          "name": "_creator",
          "type": "address",
          "internalType": "address"
        },
        {
          "name": "_governor",
          "type": "address",
          "internalType": "address"
        }
      ],
      "stateMutability": "nonpayable"
    },
    {
      "type": "function",
      "name": "CAMPAIGN_CREATOR",
      "inputs": [],
      "outputs": [
        {
          "name": "",
          "type": "address",
          "internalType": "address"
        }
      ],
      "stateMutability": "view"
    },
    {
      "type": "function",
      "name": "GOVERNOR",
      "inputs": [],
      "outputs": [
        {
          "name": "",
          "type": "address",
          "internalType": "address"
        }
      ],
      "stateMutability": "view"
    },
    {
      "type": "function",
      "name": "TOKEN",
      "inputs": [],
      "outputs": [
        {
          "name": "",
          "type": "address",
          "internalType": "contract IERC20"
        }
      ],
      "stateMutability": "view"
    },
    {
      "type": "function",
      "name": "deposit",
      "inputs": [
        {
          "name": "amount",
          "type": "uint256",
          "internalType": "uint256"
        }
      ],
      "outputs": [],
      "stateMutability": "nonpayable"
    },
    {
      "type": "function",
      "name": "emergencyWithdraw",
      "inputs": [
        {
          "name": "amount",
          "type": "uint256",
          "internalType": "uint256"
        }
      ],
      "outputs": [],
      "stateMutability": "nonpayable"
    },
    {
      "type": "function",
      "name": "getMilestone",
      "inputs": [
        {
          "name": "id",
          "type": "uint256",
          "internalType": "uint256"
        }
      ],
      "outputs": [
        {
          "name": "proofCid",
          "type": "string",
          "internalType": "string"
        },
        {
          "name": "amount",
          "type": "uint256",
          "internalType": "uint256"
        },
        {
          "name": "released",
          "type": "bool",
          "internalType": "bool"
        }
      ],
      "stateMutability": "view"
    },
    {
      "type": "function",
      "name": "getMilestoneCount",
      "inputs": [],
      "outputs": [
        {
          "name": "",
          "type": "uint256",
          "internalType": "uint256"
        }
      ],
      "stateMutability": "view"
    },
    {
      "type": "function",
      "name": "milestones",
      "inputs": [
        {
          "name": "",
          "type": "uint256",
          "internalType": "uint256"
        }
      ],
      "outputs": [
        {
          "name": "proofCid",
          "type": "string",
          "internalType": "string"
        },
        {
          "name": "amount",
          "type": "uint256",
          "internalType": "uint256"
        },
        {
          "name": "released",
          "type": "bool",
          "internalType": "bool"
        }
      ],
      "stateMutability": "view"
    },
    {
      "type": "function",
      "name": "owner",
      "inputs": [],
      "outputs": [
        {
          "name": "",
          "type": "address",
          "internalType": "address"
        }
      ],
      "stateMutability": "view"
    },
    {
      "type": "function",
      "name": "proposeMilestone",
      "inputs": [
        {
          "name": "proofCid",
          "type": "string",
          "internalType": "string"
        },
        {
          "name": "amount",
          "type": "uint256",
          "internalType": "uint256"
        }
      ],
      "outputs": [],
      "stateMutability": "nonpayable"
    },
    {
      "type": "function",
      "name": "releaseMilestone",
      "inputs": [
        {
          "name": "milestoneId",
          "type": "uint256",
          "internalType": "uint256"
        }
      ],
      "outputs": [],
      "stateMutability": "nonpayable"
    },
    {
      "type": "function",
      "name": "renounceOwnership",
      "inputs": [],
      "outputs": [],
      "stateMutability": "nonpayable"
    },
    {
      "type": "function",
      "name": "totalDeposited",
      "inputs": [],
      "outputs": [
        {
          "name": "",
          "type": "uint256",
          "internalType": "uint256"
        }
      ],
      "stateMutability": "view"
    },
    {
      "type": "function",
      "name": "totalReleased",
      "inputs": [],
      "outputs": [
        {
          "name": "",
          "type": "uint256",
          "internalType": "uint256"
        }
      ],
      "stateMutability": "view"
    },
    {
      "type": "function",
      "name": "transferOwnership",
      "inputs": [
        {
          "name": "newOwner",
          "type": "address",
          "internalType": "address"
        }
      ],
      "outputs": [],
      "stateMutability": "nonpayable"
    },
    {
      "type": "event",
      "name": "Deposited",
      "inputs": [
        {
          "name": "donor",
          "type": "address",
          "indexed": true,
          "internalType": "address"
        },
        {
          "name": "amount",
          "type": "uint256",
          "indexed": false,
          "internalType": "uint256"
        }
      ],
      "anonymous": false
    },
    {
      "type": "event",
      "name": "MilestoneProposed",
      "inputs": [
        {
          "name": "id",
          "type": "uint256",
          "indexed": true,
          "internalType": "uint256"
        },
        {
          "name": "proofCid",
          "type": "string",
          "indexed": false,
          "internalType": "string"
        },
        {
          "name": "amount",
          "type": "uint256",
          "indexed": false,
          "internalType": "uint256"
        }
      ],
      "anonymous": false
    },
    {
      "type": "event",
      "name": "MilestoneReleased",
      "inputs": [
        {
          "name": "id",
          "type": "uint256",
          "indexed": true,
          "internalType": "uint256"
        },
        {
          "name": "amount",
          "type": "uint256",
          "indexed": false,
          "internalType": "uint256"
        },
        {
          "name": "to",
          "type": "address",
          "indexed": false,
          "internalType": "address"
        }
      ],
      "anonymous": false
    },
    {
      "type": "event",
      "name": "OwnershipTransferred",
      "inputs": [
        {
          "name": "previousOwner",
          "type": "address",
          "indexed": true,
          "internalType": "address"
        },
        {
          "name": "newOwner",
          "type": "address",
          "indexed": true,
          "internalType": "address"
        }
      ],
      "anonymous": false
    },
    {
      "type": "error",
      "name": "OwnableInvalidOwner",
      "inputs": [
        {
          "name": "owner",
          "type": "address",
          "internalType": "address"
        }
      ]
    },
    {
      "type": "error",
      "name": "OwnableUnauthorizedAccount",
      "inputs": [
        {
          "name": "account",
          "type": "address",
          "internalType": "address"
        }
      ]
    },
    {
      "type": "error",
      "name": "ReentrancyGuardReentrantCall",
      "inputs": []
    },
    {
      "type": "error",
      "name": "SafeERC20FailedOperation",
      "inputs": [
        {
          "name": "token",
          "type": "address",
          "internalType": "address"
        }
      ]
    }
  ],
  "bytecode": {
    "object": "0x60e03461014257601f610fb338819003918201601f19168301916001600160401b0383118484101761014657808492606094604052833981010312610142576100478161015a565b9061006060406100596020840161015a565b920161015a565b9060017f9b779b17422d0df92223018b32b4d1fa46e071723d6817e2486d003becc55f0055331561012f575f8054336001600160a01b0319821681178355604051959290916001600160a01b0316907f8be0079c531659141344cd1fd0a4f28419497f9722a3daafe3b4186f6b6457e09080a36001600160a01b031660805260a05260c052610e44908161016f823960805181818161024301528181610688015281816107b501526108f6015260a0518181816101eb015261098c015260c05181818161072301526107650152f35b631e4fbdf760e01b5f525f60045260245ffd5b5f80fd5b634e487b7160e01b5f52604160045260245ffd5b51906001600160a01b03821682036101425756fe60806040526004361015610011575f80fd5b5f3560e01c80632442e1cb14610aad578063317debf51461089b5780635312ea8e146107525780636dc0ae221461070e578063715018a6146106b757806382bfefc8146106735780638da5cb5b1461064c5780638f4cf2471461062f578063a1e887021461032f578063b6b55f251461021a578063dd444718146101d6578063e33b7de3146101b9578063e89e4ed614610168578063f2fde38b146100df5763ff50abdc146100be575f80fd5b346100db575f3660031901126100db576020600154604051908152f35b5f80fd5b346100db5760203660031901126100db576004356001600160a01b038116908190036100db5761010d610d38565b8015610155575f80546001600160a01b03198116831782556001600160a01b0316907f8be0079c531659141344cd1fd0a4f28419497f9722a3daafe3b4186f6b6457e09080a3005b631e4fbdf760e01b5f525f60045260245ffd5b346100db5760203660031901126100db576004356003548110156100db5761018f90610b46565b5061019981610c07565b6101b560ff600260018501549401541660405193849384610b0a565b0390f35b346100db575f3660031901126100db576020600254604051908152f35b346100db575f3660031901126100db576040517f00000000000000000000000000000000000000000000000000000000000000006001600160a01b03168152602090f35b346100db5760203660031901126100db57600435610236610d5e565b610241811515610cf7565b7f00000000000000000000000000000000000000000000000000000000000000006040516323b872dd60e01b5f5233600452306024528260445260205f60648180865af19060015f511482161561030e575b6040525f606052156102ee57506102ac81600154610cea565b6001556040519081527f2da466a7b24304f47e87fa2e1e5a81b9831ce54fec19055ce277ca2f39ba42c460203392a260015f516020610def5f395f51905f5255005b635274afe760e01b5f9081526001600160a01b0391909116600452602490fd5b90600181151661032657823b15153d15161690610293565b503d5f823e3d90fd5b346100db5760403660031901126100db5760043567ffffffffffffffff81116100db57366023820112156100db57806004013567ffffffffffffffff81116100db57602482019160248236920101116100db576024359061038e610d38565b610399821515610cf7565b6001546103a883600254610cea565b116105ea57604051916103ba83610bc9565b601f19601f830116926040516103d36020860182610be5565b838152838660208301375f602085830101528152602081019082825260408101915f8352600354680100000000000000008110156105c35780600161041b9201600355610b46565b9290926105d7575180519067ffffffffffffffff82116105c35761043f8454610b91565b601f8111610572575b50602090601f831160011461050b576002949392915f9183610500575b50508160011b915f199060031b1c19161782555b516001820155019051151560ff80198354169116179055600354935f1985019485116104ec577fa8dc57f62ffa9c64862029f28b93c4e4bb142bab078b7a67ffe8947a80bc2a69936060925f848660405197889660408852816040890152838801378501015260208301528101030190a2005b634e487b7160e01b5f52601160045260245ffd5b015190508a80610465565b90601f19831691855f52815f20925f5b81811061055a575091600193918560029897969410610542575b505050811b018255610479565b01515f1960f88460031b161c191690558a8080610535565b9293602060018192878601518155019501930161051b565b8281111561044857845f5260205f20601f840160051c90602085106105bb575b81601f9101920160051c03905f5b8281106105ae575050610448565b5f828201556001016105a0565b5f9150610592565b634e487b7160e01b5f52604160045260245ffd5b634e487b7160e01b5f525f60045260245ffd5b60405162461bcd60e51b815260206004820152601a60248201527f4e6f7420656e6f7567682066756e6473206465706f73697465640000000000006044820152606490fd5b346100db575f3660031901126100db576020600354604051908152f35b346100db575f3660031901126100db575f546040516001600160a01b039091168152602090f35b346100db575f3660031901126100db576040517f00000000000000000000000000000000000000000000000000000000000000006001600160a01b03168152602090f35b346100db575f3660031901126100db576106cf610d38565b5f80546001600160a01b0319811682556001600160a01b03167f8be0079c531659141344cd1fd0a4f28419497f9722a3daafe3b4186f6b6457e08280a3005b346100db575f3660031901126100db576040517f00000000000000000000000000000000000000000000000000000000000000006001600160a01b03168152602090f35b346100db5760203660031901126100db577f00000000000000000000000000000000000000000000000000000000000000006004356001600160a01b038216330361085d5761079f610d5e565b6040516370a0823160e01b8152306004820152917f00000000000000000000000000000000000000000000000000000000000000006020846024816001600160a01b0385165afa938415610852575f9461081c575b5061080483610809951015610ca7565b610d96565b60015f516020610def5f395f51905f5255005b93506020843d60201161084a575b8161083760209383610be5565b810103126100db579251926108046107f4565b3d915061082a565b6040513d5f823e3d90fd5b60405162461bcd60e51b815260206004820152601660248201527513db9b1e4819dbdd995c9b9bdc8818d85b8818d85b1b60521b6044820152606490fd5b346100db5760203660031901126100db576004356108b7610d38565b6108bf610d5e565b600354811015610a71576108d281610b46565b5060028101805460ff8116610a39576040516370a0823160e01b81523060048201527f0000000000000000000000000000000000000000000000000000000000000000926020826024816001600160a01b0388165afa918215610852575f926109df575b506040939291610984916001807fefa981f9388f17167597c5fee4fc3d24b2b772263e1accbf61cfb2d219fc40f5980194610975865480951015610ca7565b60ff1916179055600254610cea565b6002556109b57f00000000000000000000000000000000000000000000000000000000000000009283835491610d96565b5482519081526001600160a01b039091166020820152a260015f516020610def5f395f51905f5255005b90939291506020813d602011610a31575b816109fd60209383610be5565b810103126100db575191929091907fefa981f9388f17167597c5fee4fc3d24b2b772263e1accbf61cfb2d219fc40f5610936565b3d91506109f0565b60405162461bcd60e51b815260206004820152601060248201526f105b1c9958591e481c995b19585cd95960821b6044820152606490fd5b60405162461bcd60e51b8152602060048201526014602482015273125b9d985b1a59081b5a5b195cdd1bdb9948125160621b6044820152606490fd5b346100db5760203660031901126100db57610ac9600435610b46565b50604051610ad681610bc9565b6101b56040610ae484610c07565b9283815260ff600260018701549687602085015201541615159182910152604051938493845b91939260806020604093606086528051918291826060890152018387015e5f828287010152601f80199101168401019460208401521515910152565b600354811015610b7d5760035f81815291027fc2575a0e9e593c00f959f8c92f12db2869c3395a3b0502d05e2516446f71f85b0191565b634e487b7160e01b5f52603260045260245ffd5b90600182811c92168015610bbf575b6020831014610bab57565b634e487b7160e01b5f52602260045260245ffd5b91607f1691610ba0565b6060810190811067ffffffffffffffff8211176105c357604052565b90601f8019910116810190811067ffffffffffffffff8211176105c357604052565b9060405191825f825492610c1a84610b91565b8084529360018116908115610c855750600114610c41575b50610c3f92500383610be5565b565b90505f9291925260205f20905f915b818310610c69575050906020610c3f928201015f610c32565b6020919350806001915483858901015201910190918492610c50565b905060209250610c3f94915060ff191682840152151560051b8201015f610c32565b15610cae57565b60405162461bcd60e51b8152602060048201526014602482015273496e73756666696369656e742062616c616e636560601b6044820152606490fd5b919082018092116104ec57565b15610cfe57565b60405162461bcd60e51b81526020600482015260126024820152710416d6f756e74206d757374206265203e20360741b6044820152606490fd5b5f546001600160a01b03163303610d4b57565b63118cdaa760e01b5f523360045260245ffd5b60025f516020610def5f395f51905f525414610d875760025f516020610def5f395f51905f5255565b633ee5aeb560e01b5f5260045ffd5b916040519163a9059cbb60e01b5f5260018060a01b031660045260245260205f60448180865af19060015f5114821615610dd6575b604052156102ee5750565b90600181151661032657823b15153d15161690610dcb56fe9b779b17422d0df92223018b32b4d1fa46e071723d6817e2486d003becc55f00a264697066735822122049ae11c5f026af602edb8eb371bd03cb109337a127f8763aa530582e757e469d64736f6c63430008220033",
    "linkReferences": {}
  },
  "methodIdentifiers": {
    "CAMPAIGN_CREATOR()": "dd444718",
    "GOVERNOR()": "6dc0ae22",
    "TOKEN()": "82bfefc8",
    "deposit(uint256)": "b6b55f25",
    "emergencyWithdraw(uint256)": "5312ea8e",
    "getMilestone(uint256)": "2442e1cb",
    "getMilestoneCount()": "8f4cf247",
    "milestones(uint256)": "e89e4ed6",
    "owner()": "8da5cb5b",
    "proposeMilestone(string,uint256)": "a1e88702",
    "releaseMilestone(uint256)": "317debf5",
    "renounceOwnership()": "715018a6",
    "totalDeposited()": "ff50abdc",
    "totalReleased()": "e33b7de3",
    "transferOwnership(address)": "f2fde38b"
  },
  "id": 87
}